{
  "_format": "hh3-artifact-1",
  "contractName": "GM",
  "sourceName": "contracts/GM.sol",
  "abi": [
    {
      "anonymous": false,
      "inputs": [
        {
          "indexed": true,
          "internalType": "address",
          "name": "sender",
          "type": "address"
        },
        {
          "indexed": false,
          "internalType": "uint256",
          "name": "timestamp",
          "type": "uint256"
        }
      ],
      "name": "GMSent",
      "type": "event"
    },
    {
      "inputs": [],
      "name": "gm",
      "outputs": [],
      "stateMutability": "nonpayable",
      "type": "function"
    },
    {
      "inputs": [
        {
          "internalType": "address",
          "name": "",
          "type": "address"
        }
      ],
      "name": "gmCount",
      "outputs": [
        {
          "internalType": "uint256",
          "name": "",
          "type": "uint256"
        }
      ],
      "stateMutability": "view",
      "type": "function"
    },
    {
      "inputs": [],
      "name": "totalGMs",
      "outputs": [
        {
          "internalType": "uint256",
          "name": "",
          "type": "uint256"
        }
      ],
      "stateMutability": "view",
      "type": "function"
    }
  ],
  "bytecode": "0x608060405234801561000f575f80fd5b506102d18061001d5f395ff3fe608060405234801561000f575f80fd5b506004361061003f575f3560e01c80633c5827a914610043578063a29002ac14610073578063c0129d4314610091575b5f80fd5b61005d600480360381019061005891906101cb565b61009b565b60405161006a919061020e565b60405180910390f35b61007b6100af565b604051610088919061020e565b60405180910390f35b6100996100b5565b005b5f602052805f5260405f205f915090505481565b60015481565b5f803373ffffffffffffffffffffffffffffffffffffffff1673ffffffffffffffffffffffffffffffffffffffff1681526020019081526020015f205f81548092919061010190610254565b919050555060015f81548092919061011890610254565b91905055503373ffffffffffffffffffffffffffffffffffffffff167fe396f558a5e5e30b3eefa7ca63b9b1e7c6592d30c5ae864def910c3dd5b356bf42604051610163919061020e565b60405180910390a2565b5f80fd5b5f73ffffffffffffffffffffffffffffffffffffffff82169050919050565b5f61019a82610171565b9050919050565b6101aa81610190565b81146101b4575f80fd5b50565b5f813590506101c5816101a1565b92915050565b5f602082840312156101e0576101df61016d565b5b5f6101ed848285016101b7565b91505092915050565b5f819050919050565b610208816101f6565b82525050565b5f6020820190506102215f8301846101ff565b92915050565b7f4e487b71000000000000000000000000000000000000000000000000000000005f52601160045260245ffd5b5f61025e826101f6565b91507fffffffffffffffffffffffffffffffffffffffffffffffffffffffffffffffff82036102905761028f610227565b5b60018201905091905056fea2646970667358221220a9bf7f32f564bf7c14f95417dcc1a4a3c89f3869e9a408f379356920fded449c64736f6c63430008140033",
  "linkReferences": {},
  "deployedLinkReferences": {},
  "immutableReferences": {},
  "inputSourceName": "project/contracts/GM.sol",
  "buildInfoId": "solc-0_8_20-d2d96e7f5f14b493d96e6455351019f3d35e16af"
}